{
  "_format": "hh-sol-artifact-1",
  "contractName": "AuctionEngine",
  "sourceName": "contracts/Auction.sol",
  "abi": [
    {
      "inputs": [],
      "stateMutability": "nonpayable",
      "type": "constructor"
    },
    {
      "anonymous": false,
      "inputs": [
        {
          "indexed": false,
          "internalType": "uint256",
          "name": "index",
          "type": "uint256"
        },
        {
          "indexed": false,
          "internalType": "string",
          "name": "item",
          "type": "string"
        },
        {
          "indexed": false,
          "internalType": "uint256",
          "name": "startPrice",
          "type": "uint256"
        },
        {
          "indexed": false,
          "internalType": "uint256",
          "name": "duration",
          "type": "uint256"
        }
      ],
      "name": "AuctionCreated",
      "type": "event"
    },
    {
      "anonymous": false,
      "inputs": [
        {
          "indexed": false,
          "internalType": "uint256",
          "name": "index",
          "type": "uint256"
        },
        {
          "indexed": false,
          "internalType": "string",
          "name": "item",
          "type": "string"
        },
        {
          "indexed": false,
          "internalType": "uint256",
          "name": "finalPrice",
          "type": "uint256"
        },
        {
          "indexed": false,
          "internalType": "address",
          "name": "winner",
          "type": "address"
        }
      ],
      "name": "AuctionEnded",
      "type": "event"
    },
    {
      "inputs": [
        {
          "internalType": "uint256",
          "name": "",
          "type": "uint256"
        }
      ],
      "name": "auction",
      "outputs": [
        {
          "internalType": "address payable",
          "name": "seller",
          "type": "address"
        },
        {
          "internalType": "uint256",
          "name": "startingPrice",
          "type": "uint256"
        },
        {
          "internalType": "uint256",
          "name": "finalPrice",
          "type": "uint256"
        },
        {
          "internalType": "uint256",
          "name": "startAt",
          "type": "uint256"
        },
        {
          "internalType": "uint256",
          "name": "endsAt",
          "type": "uint256"
        },
        {
          "internalType": "uint256",
          "name": "discountRate",
          "type": "uint256"
        },
        {
          "internalType": "string",
          "name": "item",
          "type": "string"
        },
        {
          "internalType": "bool",
          "name": "stopped",
          "type": "bool"
        }
      ],
      "stateMutability": "view",
      "type": "function"
    },
    {
      "inputs": [
        {
          "internalType": "uint256",
          "name": "_index",
          "type": "uint256"
        }
      ],
      "name": "buy",
      "outputs": [],
      "stateMutability": "payable",
      "type": "function"
    },
    {
      "inputs": [
        {
          "internalType": "uint256",
          "name": "_startPrice",
          "type": "uint256"
        },
        {
          "internalType": "uint256",
          "name": "_discountRate",
          "type": "uint256"
        },
        {
          "internalType": "string",
          "name": "_item",
          "type": "string"
        },
        {
          "internalType": "uint256",
          "name": "_duration",
          "type": "uint256"
        }
      ],
      "name": "createAuction",
      "outputs": [],
      "stateMutability": "nonpayable",
      "type": "function"
    },
    {
      "inputs": [
        {
          "internalType": "uint256",
          "name": "index",
          "type": "uint256"
        }
      ],
      "name": "getPriceFor",
      "outputs": [
        {
          "internalType": "uint256",
          "name": "",
          "type": "uint256"
        }
      ],
      "stateMutability": "view",
      "type": "function"
    },
    {
      "inputs": [],
      "name": "owner",
      "outputs": [
        {
          "internalType": "address",
          "name": "",
          "type": "address"
        }
      ],
      "stateMutability": "view",
      "type": "function"
    }
  ],
  "bytecode": "0x608060405234801561001057600080fd5b50336000806101000a81548173ffffffffffffffffffffffffffffffffffffffff021916908373ffffffffffffffffffffffffffffffffffffffff1602179055506113ee806100606000396000f3fe60806040526004361061004a5760003560e01c80631200617f1461004f5780634534cd9c146100935780638da5cb5b146100d0578063d96a094a146100fb578063e9835d1514610117575b600080fd5b34801561005b57600080fd5b5061007660048036038101906100719190610948565b610140565b60405161008a989796959493929190610a70565b60405180910390f35b34801561009f57600080fd5b506100ba60048036038101906100b59190610948565b61024d565b6040516100c79190610af5565b60405180910390f35b3480156100dc57600080fd5b506100e561043c565b6040516100f29190610b31565b60405180910390f35b61011560048036038101906101109190610948565b610460565b005b34801561012357600080fd5b5061013e60048036038101906101399190610bb1565b6106c9565b005b6001818154811061015057600080fd5b90600052602060002090600802016000915090508060000160009054906101000a900473ffffffffffffffffffffffffffffffffffffffff16908060010154908060020154908060030154908060040154908060050154908060060180546101b790610c68565b80601f01602080910402602001604051908101604052809291908181526020018280546101e390610c68565b80156102305780601f1061020557610100808354040283529160200191610230565b820191906000526020600020905b81548152906001019060200180831161021357829003601f168201915b5050505050908060070160009054906101000a900460ff16905088565b6000806001838154811061026457610263610c99565b5b9060005260206000209060080201604051806101000160405290816000820160009054906101000a900473ffffffffffffffffffffffffffffffffffffffff1673ffffffffffffffffffffffffffffffffffffffff1673ffffffffffffffffffffffffffffffffffffffff168152602001600182015481526020016002820154815260200160038201548152602001600482015481526020016005820154815260200160068201805461031690610c68565b80601f016020809104026020016040519081016040528092919081815260200182805461034290610c68565b801561038f5780601f106103645761010080835404028352916020019161038f565b820191906000526020600020905b81548152906001019060200180831161037257829003601f168201915b505050505081526020016007820160009054906101000a900460ff16151515158152505090508060e00151156103fa576040517f08c379a00000000000000000000000000000000000000000000000000000000081526004016103f190610d14565b60405180910390fd5b600081606001514261040c9190610d63565b90506000818360a001516104209190610d97565b90508083602001516104329190610d63565b9350505050919050565b60008054906101000a900473ffffffffffffffffffffffffffffffffffffffff1681565b60006001828154811061047657610475610c99565b5b906000526020600020906008020190508060070160009054906101000a900460ff16156104d8576040517f08c379a00000000000000000000000000000000000000000000000000000000081526004016104cf90610d14565b60405180910390fd5b8060040154421061051e576040517f08c379a000000000000000000000000000000000000000000000000000000000815260040161051590610e25565b60405180910390fd5b60006105298361024d565b90508034101561056e576040517f08c379a000000000000000000000000000000000000000000000000000000000815260040161056590610e91565b60405180910390fd5b60018260070160006101000a81548160ff021916908315150217905550808260020181905550600081346105a29190610d63565b905060008111156105f5573373ffffffffffffffffffffffffffffffffffffffff166108fc829081150290604051600060405180830381858888f193505050501580156105f3573d6000803e3d6000fd5b505b8260000160009054906101000a900473ffffffffffffffffffffffffffffffffffffffff1673ffffffffffffffffffffffffffffffffffffffff166108fc60646005856106429190610d97565b61064c9190610ee0565b846106579190610d63565b9081150290604051600060405180830381858888f19350505050158015610682573d6000803e3d6000fd5b507ff5f31e60e054689229fc13d9e7e0ee7f08eec6d3db488ca044ca4753acda1a3f848460060184336040516106bb9493929190610faa565b60405180910390a150505050565b60008082146106d857816106dd565b620151805b905080856106eb9190610d97565b86101561072d576040517f08c379a000000000000000000000000000000000000000000000000000000000815260040161072490611042565b60405180910390fd5b60006040518061010001604052803373ffffffffffffffffffffffffffffffffffffffff16815260200188815260200188815260200142815260200183426107759190611062565b815260200187815260200186868080601f016020809104026020016040519081016040528093929190818152602001838380828437600081840152601f19601f820116905080830192505050505050508152602001600015158152509050600181908060018154018082558091505060019003906000526020600020906008020160009091909190915060008201518160000160006101000a81548173ffffffffffffffffffffffffffffffffffffffff021916908373ffffffffffffffffffffffffffffffffffffffff1602179055506020820151816001015560408201518160020155606082015181600301556080820151816004015560a0820151816005015560c082015181600601908161088d919061125c565b5060e08201518160070160006101000a81548160ff02191690831515021790555050507f5bf34ed94988e5dcdc7d1faaa54eb1d3b55f45d5f11457e235afb21a8ebbe73c600180805490506108e29190610d63565b86868a866040516108f795949392919061136a565b60405180910390a150505050505050565b600080fd5b600080fd5b6000819050919050565b61092581610912565b811461093057600080fd5b50565b6000813590506109428161091c565b92915050565b60006020828403121561095e5761095d610908565b5b600061096c84828501610933565b91505092915050565b600073ffffffffffffffffffffffffffffffffffffffff82169050919050565b60006109a082610975565b9050919050565b6109b081610995565b82525050565b6109bf81610912565b82525050565b600081519050919050565b600082825260208201905092915050565b60005b838110156109ff5780820151818401526020810190506109e4565b60008484015250505050565b6000601f19601f8301169050919050565b6000610a27826109c5565b610a3181856109d0565b9350610a418185602086016109e1565b610a4a81610a0b565b840191505092915050565b60008115159050919050565b610a6a81610a55565b82525050565b600061010082019050610a86600083018b6109a7565b610a93602083018a6109b6565b610aa060408301896109b6565b610aad60608301886109b6565b610aba60808301876109b6565b610ac760a08301866109b6565b81810360c0830152610ad98185610a1c565b9050610ae860e0830184610a61565b9998505050505050505050565b6000602082019050610b0a60008301846109b6565b92915050565b6000610b1b82610975565b9050919050565b610b2b81610b10565b82525050565b6000602082019050610b466000830184610b22565b92915050565b600080fd5b600080fd5b600080fd5b60008083601f840112610b7157610b70610b4c565b5b8235905067ffffffffffffffff811115610b8e57610b8d610b51565b5b602083019150836001820283011115610baa57610ba9610b56565b5b9250929050565b600080600080600060808688031215610bcd57610bcc610908565b5b6000610bdb88828901610933565b9550506020610bec88828901610933565b945050604086013567ffffffffffffffff811115610c0d57610c0c61090d565b5b610c1988828901610b5b565b93509350506060610c2c88828901610933565b9150509295509295909350565b7f4e487b7100000000000000000000000000000000000000000000000000000000600052602260045260246000fd5b60006002820490506001821680610c8057607f821691505b602082108103610c9357610c92610c39565b5b50919050565b7f4e487b7100000000000000000000000000000000000000000000000000000000600052603260045260246000fd5b7f73746f7070656400000000000000000000000000000000000000000000000000600082015250565b6000610cfe6007836109d0565b9150610d0982610cc8565b602082019050919050565b60006020820190508181036000830152610d2d81610cf1565b9050919050565b7f4e487b7100000000000000000000000000000000000000000000000000000000600052601160045260246000fd5b6000610d6e82610912565b9150610d7983610912565b9250828203905081811115610d9157610d90610d34565b5b92915050565b6000610da282610912565b9150610dad83610912565b9250828202610dbb81610912565b91508282048414831517610dd257610dd1610d34565b5b5092915050565b7f656e646564000000000000000000000000000000000000000000000000000000600082015250565b6000610e0f6005836109d0565b9150610e1a82610dd9565b602082019050919050565b60006020820190508181036000830152610e3e81610e02565b9050919050565b7f6e6f7420656e6f7567682066756e647300000000000000000000000000000000600082015250565b6000610e7b6010836109d0565b9150610e8682610e45565b602082019050919050565b60006020820190508181036000830152610eaa81610e6e565b9050919050565b7f4e487b7100000000000000000000000000000000000000000000000000000000600052601260045260246000fd5b6000610eeb82610912565b9150610ef683610912565b925082610f0657610f05610eb1565b5b828204905092915050565b60008190508160005260206000209050919050565b60008154610f3381610c68565b610f3d81866109d0565b94506001821660008114610f585760018114610f6e57610fa1565b60ff198316865281151560200286019350610fa1565b610f7785610f11565b60005b83811015610f9957815481890152600182019150602081019050610f7a565b808801955050505b50505092915050565b6000608082019050610fbf60008301876109b6565b8181036020830152610fd18186610f26565b9050610fe060408301856109b6565b610fed6060830184610b22565b95945050505050565b7f496e636f7272656374207374617274696e672070726963650000000000000000600082015250565b600061102c6018836109d0565b915061103782610ff6565b602082019050919050565b6000602082019050818103600083015261105b8161101f565b9050919050565b600061106d82610912565b915061107883610912565b92508282019050808211156110905761108f610d34565b5b92915050565b7f4e487b7100000000000000000000000000000000000000000000000000000000600052604160045260246000fd5b60006020601f8301049050919050565b600082821b905092915050565b6000600883026111127fffffffffffffffffffffffffffffffffffffffffffffffffffffffffffffffff826110d5565b61111c86836110d5565b95508019841693508086168417925050509392505050565b6000819050919050565b600061115961115461114f84610912565b611134565b610912565b9050919050565b6000819050919050565b6111738361113e565b61118761117f82611160565b8484546110e2565b825550505050565b600090565b61119c61118f565b6111a781848461116a565b505050565b5b818110156111cb576111c0600082611194565b6001810190506111ad565b5050565b601f821115611210576111e181610f11565b6111ea846110c5565b810160208510156111f9578190505b61120d611205856110c5565b8301826111ac565b50505b505050565b600082821c905092915050565b600061123360001984600802611215565b1980831691505092915050565b600061124c8383611222565b9150826002028217905092915050565b611265826109c5565b67ffffffffffffffff81111561127e5761127d611096565b5b6112888254610c68565b6112938282856111cf565b600060209050601f8311600181146112c657600084156112b4578287015190505b6112be8582611240565b865550611326565b601f1984166112d486610f11565b60005b828110156112fc578489015182556001820191506020850194506020810190506112d7565b868310156113195784890151611315601f891682611222565b8355505b6001600288020188555050505b505050505050565b82818337600083830152505050565b600061134983856109d0565b935061135683858461132e565b61135f83610a0b565b840190509392505050565b600060808201905061137f60008301886109b6565b818103602083015261139281868861133d565b90506113a160408301856109b6565b6113ae60608301846109b6565b969550505050505056fea26469706673582212200adf9ec3333d73e0a2266386e4342b6360529bcc0e7fa75b79ea311ee5f6bd8964736f6c63430008120033",
  "linkReferences": {},
  "deployedLinkReferences": {}
}